:020000040800F2
:10000000C80A002001010008510800085308000830
:10001000570800085B0800085F080008000000009F
:10002000000000000000000000000000630800085D
:10003000650800080000000067080008690800085B
:100040001701000817010008170100081701000830
:100050001701000817010008170100081701000820
:100060001701000817010008170100081701000810
:100070001701000817010008170100081701000800
:1000800017010008170100081701000817010008F0
:1000900017010008170100081701000817010008E0
:1000A00017010008170100081701000817010008D0
:1000B00017010008170100081701000817010008C0
:1000C00017010008170100081701000817010008B0
:1000D0001701000817010008B70E000817010008F3
:1000E000170100081701000817010008DFF80CD0FD
:1000F00003F004F90048004751010008C80A002035
:1001000005480047FEE7FEE7FEE7FEE7FEE7FEE7FD
:10011000FEE7FEE7FEE7FEE7ED00000810B54FF44E
:100120000071CF4803F08BF80020CE490880CE49FB
:10013000087010BDCC4800787047002100E0491CD1
:1001400000EB4002C2EBC012B1EBC20FF7D3704715
:100150000EB503F031F800F0C3F900F005FA4820BD
:1001600000F050FA00F0D2FD00F081FCBFA003F0D7
:1001700021F906E0BFA003F01DF94FF47A7000F0FA
:100180005BFA00F040FB0028F4D101F0C8FE00F05B
:10019000EAFF1A20BB490870052048701D208870AE
:1001A00001200871102048710020887156E101F08B
:1001B0000AF8B5480088401CB34908800846008802
:1001C00032286FDB00200880B049B14800F0EFFA18
:1001D000AC4801F008FFAB488079AA494979A94A9F
:1001E0001279CDE900210290A648837842780178FF
:1001F000A8A003F0DFF8A5480278A5480178AEA0D2
:1002000003F0D8F8102002231422002100902020AF
:1002100000F0ADFC102000909A48027802230021E3
:10022000302000F0A4FCABA20021402000F0E1FC53
:10023000944840780A2811DA102001230022114640
:100240000090482000F093FC102000908D484278E8
:1002500001230021502000F08AFC08E010200090CB
:100260008848427802230021482000F080FC99A2AF
:100270000021582000F0BDFC824880780A2812DA5C
:1002800010200123002211460090602000F06FFC36
:10029000102000907B48827801230021682000F024
:1002A00066FC09E0D7E010200090764882780223AF
:1002B0000021602000F05BFC724800790A2811DA06
:1002C00010200123002202210090302000F04FFC7A
:1002D000102000906B48027901230221382000F0A1
:1002E00046FC08E010200090664802790223194677
:1002F000302000F03CFC78A20221402000F079FC84
:10030000604840790A2811DA1020012300220221D6
:100310000090482000F02BFC1020009059484279B2
:1003200001230221502000F022FC08E01020009060
:100330005448427902231946482000F018FC66A26E
:100340000221582000F055FC4E4880790A2811DA25
:1003500010200123002202210090602000F007FC01
:10036000102000904748827901230221682000F084
:10037000FEFB08E0102000904248827902231946D3
:10038000602000F0F4FB05220421202000F04CFC4A
:1003900006220421302000F047FC082204214020DE
:1003A00000F042FC3A4800780A2811DA10200123B4
:1003B000002204210090502000F0D9FB10200123DE
:1003C0000090334802780421582000F0D0FB08E068
:1003D0001020022300902E4802780421502000F0C3
:1003E000C6FB06220421602000F01EFC0722062125
:1003F000202000F019FC06221146302000F014FCE9
:1004000008220621402000F00FFC204800780A282E
:1004100011DA10200123002206210090502000F064
:10042000A6FB1020012300901848027806215820CE
:1004300000F09DFB08E01020022300901348027892
:100440000621502000F093FB24A20621602000F03A
:10045000D0FB00F05EF8142000F0EEF8A7E60000F4
:10046000C4020020000000200200002053746172CA
:1004700074200A004448543131204572726F722052
:100480000D0A0000050000200C00002004000020E0
:10049000030000203230253032642F253032642FA3
:1004A0002530326420253032643A253032643A25D2
:1004B0003032640D0A00000074656D703A2564EFF7
:1004C000BFBDEFBFBD432C2068756D693A2564251B
:1004D000250D0A002F0000003A0000002500000052
:1004E00008B50121082002F06BFB4FF48070ADF8D5
:1004F000000010208DF8030003208DF802006946EB
:10050000184802F0C1F84FF48071164802F069F9FA
:1005100008BD10B54FF48071124802F055F9C0F1D2
:100520000100C4B222464FF480710E4802F05DF91A
:1005300010BD10B500224FF480710A4802F055F941
:1005400010BD10B501221102064802F04EF910BD8F
:1005500010B5FFF7EEFF0A2000F06EF8FFF7F1FF8D
:1005600010BD0000000C014000B585B0012144F22F
:10057000040002F025FB4FF40070ADF810001820C5
:100580008DF8130003208DF8120004A91B4802F017
:100590007BF84FF48060ADF8100004208DF8130054
:1005A00004A9164802F070F84FF4E13000900020E2
:1005B000ADF80400ADF80600ADF80800ADF80C0089
:1005C0000C20ADF80A0069460D4802F0A6FB012197
:1005D0000B4802F010FC05B000BD70B504460D4696
:1005E000E1B2074802F06FFC00BF0548008800F048
:1005F00080000028F9D0204670BD000000080140AE
:100600000038014010B504466FF0040002F043FDCD
:10061000E11704EB5171C1F3C701234A1170104671
:10062000007800EB4001C1EBC0104FF6FF7101EA0A
:10063000C0001E49088010BD01461C4A12884A436A
:100640004FF0E0235A6100229A6101221A6100BF33
:100650004FF0E022106900F001021AB100F480327C
:10066000002AF5D000224FF0E0231A619A6170470A
:1006700001460D4A12784A434FF0E0235A610022A6
:100680009A6101221A6100BF4FF0E022106900F068
:1006900001021AB100F48032002AF5D000224FF096
:1006A000E0231A619A6170470E00002010000020BC
:1006B00010B56448006820F470406249086008463C
:1006C000006840F44050086000205F490860142032
:1006D000FFF7B2FF01205D49C1F8AC011E20FFF712
:1006E000C7FF10BD10B500245648006820F47040C4
:1006F000544908600846006840F40040086004E07F
:10070000601CC4B20120FFF7B3FF4F488038006877
:1007100008B1642CF4DB642C01DB012010BD002443
:1007200004E0601CC4B20120FFF7A2FF46488038F5
:10073000006808B9642CF4DB642C01DB0120EDE7D0
:100740000020EBE710B5002404E0601CC4B20120D7
:10075000FFF78EFF3C488038006808B1642CF4DB5A
:10076000002404E0601CC4B20120FFF781FF36487A
:100770008038006808B9642CF4DB2820FFF778FF84
:1007800031488038006808B1012010BD0020FCE726
:1007900070B50024002506E06006040EFFF7D2FFC6
:1007A0000443681CC5B2082DF6DB204670BD7CB53D
:1007B00005460E46FFF77CFFFFF794FFF8B90024CB
:1007C00005E0FFF7E5FF0DF80400601CC4B2052C3E
:1007D000F7DB9DF800009DF8011008449DF8021019
:1007E00008449DF8031008449DF80410884208D17D
:1007F0009DF8000030709DF80200287001E0012093
:100800007CBD0020FCE708B50121042002F0D8F9E6
:100810004FF40060ADF8000010208DF803000320B5
:100820008DF8020069460748001F01F02DFF4FF4C4
:1008300000610448001F01F0D4FFFFF739FFFFF704
:1008400051FF08BD04080140AC01214200002142D3
:10085000704700BFFEE700BFFEE700BFFEE700BF36
:10086000FEE77047704770477047000010B54FF4BF
:100870008061FD4801F0B5FF4FF40061FA4801F0D6
:10088000B0FF4FF40061F84801F0ADFF4FF4806114
:10089000F54801F0A8FF10BD10B54FF48061F24893
:1008A00001F09FFF4FF40061EF4801F09CFF4FF40F
:1008B0000061ED4801F095FF10BD10B54FF4806167
:1008C000E94801F08EFF4FF48061E74801F08BFFAB
:1008D00010BD2DE9F04105462C464FF48061E248F9
:1008E00001F081FF00261CE0274607F08007802FDB
:1008F00004D13901DC4801F074FF04E04FF40061D9
:10090000D94801F070FF6006040E4FF48061D648AC
:1009100001F067FF4FF48061D34801F064FF701C61
:10092000C6B2082EE0DBBDE8F08110B50446FFF743
:100930009DFF7820FFF7CDFFFFF7BFFF0020FFF7F7
:10094000C8FFFFF7BAFF2046FFF7C3FFFFF7B5FF69
:10095000FFF7A2FF10BD10B50446FFF787FF782010
:10096000FFF7B7FFFFF7A9FF4020FFF7B2FFFFF740
:10097000A4FF2046FFF7ADFFFFF79FFFFFF78CFFB7
:1009800010BD70B505460C461CB12846FFF7E3FFC5
:1009900002E02846FFF7C9FF70BD70B50646002487
:1009A00019E004F1B001C8B20021FFF7EAFF00210D
:1009B0000846FFF7E6FF00211020FFF7E2FF0025C1
:1009C00005E001213046FFF7DCFF681CC5B2802D31
:1009D000F7DB601CC4B2082CE3DB70BD06E041F617
:1009E000650100E0491E0029FCD1401E0028F6D117
:1009F0007047014605E0002001E0421CD0B27B2890
:100A0000FBDB0A1EA1F10101F5D1704770B5044668
:100A10000D4605F1B001C8B20021FFF7B2FF102169
:100A200041EA14100021FFF7ACFF04F00F00002191
:100A3000FFF7A7FF70BD10B500218D20FFF7A1FFC4
:100A400000211420FFF79DFF0021AF20FFF799FF41
:100A500010BD10B500218D20FFF793FF002110205D
:100A6000FFF78FFF0021AE20FFF78BFF10BD70B5A1
:100A7000002419E004F1B001C8B20021FFF781FFA2
:100A800000210846FFF77DFF00211020FFF779FFC6
:100A9000002505E001210020FFF773FF681CC5B2A7
:100AA000802DF7DB601CC4B2082CE3DB70BD70B591
:100AB000002419E004F1B001C8B20021FFF761FF82
:100AC00000210846FFF75DFF00211020FFF759FFC6
:100AD000002505E001210846FFF753FF681CC5B259
:100AE000802DF7DB601CC4B2082CE3DB70BD2DE960
:100AF000F04107460E46904600250024A8F120004C
:100B0000C5B27F2F02DD0027B01CC6B23146384681
:100B1000FFF77CFF002408E004EB0511534A505C0A
:100B20000121FFF72EFF601CC4B2082CF4DB701CFF
:100B3000C1B23846FFF76AFF002409E004EB051153
:100B400008314A4A505C0121FFF71BFF601CC4B208
:100B5000082CF3DBBDE8F08110B50246012000E06F
:100B600050430B1EA1F10104E1B2F9D110BD2DE9F2
:100B7000FF5F074691461D460E9E4FF0000A002477
:100B800033E0281B401EC1B20A20FFF7E5FFB9FB86
:100B9000F0F00A21B0FBF1F201FB1208BAF1000FEC
:100BA00013D1681EA04210DDB8F1000F0BD1B3467F
:100BB00006EBDB71491001FB0471C8B220220199D8
:100BC000FFF795FF0FE04FF0010AB34606EBDB712C
:100BD000491001FB0471C8B208F13001CAB2019991
:100BE000FFF785FF00BF601CC4B2AC42C9DBBDE8A3
:100BF000FF9F2DE9F04104460F46154600260EE002
:100C0000AA5D39462046FFF772FF04F10800C4B21E
:100C1000782C02DD0024B81CC7B2701CC6B2A85DD7
:100C20000028EDD1BDE8F0812DE9F04180460E4667
:100C30001546002731464046FFF7E8FE00240AE04B
:100C40000B4A02EB8511085D0121FFF79AFE781C23
:100C5000C7B2601CC4B2102CF2DB701CC1B240469B
:100C6000FFF7D4FE002412E0000C0140B03A000867
:100C7000120000206900491C664A02EB4111085D20
:100C80000121FFF77EFE781CC7B2601CC4B2102C95
:100C9000F0DBBDE8F0812DE9F05F06460F46904697
:100CA0001C46DDF828A04FF0000BE11704EB517152
:100CB000C910A4EBC10131B92046E11704EB517111
:100CC000C1F3C70506E02046E11704EB5171C910D6
:100CD000491CCDB23D4615E029463046FFF796FE49
:100CE000B1460BE059460BF1010B1AF80100012146
:100CF000FFF747FE09F1010000F0FF09C145F1DBF4
:100D0000681CC5B2A542E7DBBDE8F09F08B501212C
:100D1000082001F055FF4FF44060ADF800001020AE
:100D20008DF8030003208DF8020069463A4801F06F
:100D3000ABFC4FF44870FFF77FFC0021AE20FFF7BB
:100D400020FE00210846FFF71CFE00211020FFF7BF
:100D500018FE00214020FFF714FE0021B020FFF70D
:100D600010FE00218120FFF70CFE0021FF20FFF77D
:100D700008FE0021A120FFF704FE0021A620FFF7B6
:100D800000FE0021A820FFF7FCFD00213F20FFF717
:100D9000F8FD0021C820FFF7F4FD0021D320FFF764
:100DA000F0FD00210846FFF7ECFD0021D520FFF7FC
:100DB000E8FD00218020FFF7E4FD0021D820FFF7A7
:100DC000E0FD00210520FFF7DCFD0021D920FFF721
:100DD000D8FD0021F120FFF7D4FD0021DA20FFF734
:100DE000D0FD00211220FFF7CCFD0021DB20FFF712
:100DF000C8FD00213020FFF7C4FD00218D20FFF742
:100E0000C0FD00211420FFF7BCFD0021AF20FFF73B
:100E1000B8FD08BD12000020000C014010B586B0DE
:100E200004460121042001F0CBFE0121480401F019
:100E3000D4FE0420ADF8140018208DF8170003200C
:100E40008DF8160005A9FE4801F01EFC0820ADF83B
:100E5000140004208DF8170005A9F94801F014FCCE
:100E600001940020ADF80800ADF80A00ADF80C00C0
:100E7000ADF810000C20ADF80E0001A9F14801F00A
:100E80004CFF012240F22551EE4801F0C0FF262020
:100E90008DF8000000208DF801008DF8020001207F
:100EA0008DF80300684602F0ACF80121E54801F036
:100EB000A2FF06B010BD10B54FF45871E14802F022
:100EC00065F838B1DF4802F002F84FF45871DD4898
:100ED00002F082F840F22551DA4802F057F8A8B142
:100EE000D84801F0F4FF0446D7480088B0F5FF7FEA
:100EF00006DCD5490888411CD34B1980D3490C54D2
:100F000040F22551CF4802F067F800BF10BD10B580
:100F100004460BE000BF8021CA4802F02BF80028ED
:100F2000F9D014F8011BC74801F0CDFF2078002844
:100F3000F0D110BD10B50020C3490880C449088015
:100F40004FF40071C14802F07AF910BD10B50446A3
:100F5000BD480088B0F5007F05DA0020BB49BA4AD9
:100F60001288885403E00020B84981F8FF01214627
:100F7000B64802F06FF908B1012010BD0020FCE76F
:100F80002DE9F04180460E461746B2A1404602F0D8
:100F900061F9044614B90020BDE8F081641D002504
:100FA00006E02078303805EB850100EB4105641C34
:100FB0002078302802DB20783928F2DD35803A218C
:100FC000204602F059F904460CB90020E4E7641CFD
:100FD0003C600120E0E770B58AB006460D46FFF799
:100FE000A9FF3220FFF728FB2A469CA102A802F0A5
:100FF000F1F902A8FFF78BFF0020019011E09BA000
:10100000FFF7A4FF18B99BA0FFF7A0FF30B1294656
:101010009AA002F0CFF901200AB070BD0198401CDF
:1010200001909FA0FFF792FF18B99E49019888424E
:10103000E5D39C490198884210D329469AA002F032
:10104000B9F900208149804A128888540A467E48AE
:1010500001889EA002F0AEF90220DDE70A20FFF72A
:10106000EBFA00240CE000BF8021764801F082FFFB
:101070000028F9D0315D734801F025FF601C84B26F
:10108000AC42F0DB0020C7E710B50120964908709C
:10109000002240F225516B4801F0B9FE93A002F006
:1010A00089F99EA002F086F9A6A002F083F910BD8E
:1010B00010B500208C490870012240F2255161488A
:1010C00001F0A5FE0020AA490870AA490880FFF790
:1010D00031FF0020A8490870A8490880A849087075
:1010E000A8490860A8A002F065F910BD70B50024F9
:1010F00033E02021AB4801F03DFFC8B1A94801F021
:10110000E6FEC5B22D2D06D1601CC4B2032C03DB54
:10111000FFF7CEFF70BD002400BF8021494801F0D9
:1011200029FF0028F9D02946464801F0CCFE00BF2F
:101130002021444801F01EFF78B1424801F0C7FE6B
:10114000C5B200BF8021974801F014FF0028F9D0F4
:101150002946944801F0B7FE00BF63480078002894
:10116000C7D100BFD6E710B54FF4E130FFF756FE08
:10117000FFF7E0FE002080490870804908808A4916
:1011800008608A4908707E4908707E49086056499F
:10119000087077490870774908804FF4E13184A0DE
:1011A00002F008F98BA18CA002F004F910BD7F4871
:1011B000007870477248007870474B480078704755
:1011C0006D4800787047F0B5BBB0474800780028FC
:1011D00031D12021734801F0CDFEE8B1714801F012
:1011E00076FEC5B22B2D11D161480078401C6049B4
:1011F000087032205F4908805D48007803280ADBC8
:10120000FFF742FFFFF772FF3BB0F0BD00205849E7
:1012100008705849088000BF5648008800280ADD39
:1012200054480088401E534908800846008810B979
:1012300000204F4908700448008805490988DBE010
:10124000000801400044004094020020C404002033
:10125000960200202B4950442C00000041542B439F
:10126000495053454E443D25640D0A004552524FA6
:101270005200000062757379000000004553503839
:101280003236363A2054435053656E642072656A94
:10129000656374656420282564290D0A0000000038
:1012A0003E00000080841E00455350383236363AE6
:1012B0002054435053656E642074696D656F757476
:1012C0002C206C656E3D25640D0A00004553503896
:1012D0003236363A2072785F6275665B25645D3D12
:1012E0005B25735D0D0A0000A80200200D0A3D3D3C
:1012F0003D3D3D3D3D3D3D3D3D3D3D3D3D3D3D3D1E
:101300003D3D3D3D3D3D3D3D3D3D3D3D3D3D3D3D0D
:101310003D3D3D3D3D3D0D0A000000002020E9809F
:101320008FE4BCA0E6A8A1E5BC8F207C20E8BE939A
:10133000E585A5202D2D2D20E98080E587BA5C72FA
:101340000A0000003D3D3D3D3D3D3D3D3D3D3D3DB7
:101350003D3D3D3D3D3D3D3D3D3D3D3D3D3D3D3DBD
:101360003D3D3D3D3D3D3D3D3D3D3D3D0D0A00008A
:10137000A9020020AA020020980200209A02002060
:10138000A1020020A40200200D0A3D3D3D20E9807D
:101390008FE4BCA0E5B7B2E98080E587BA203D3D87
:1013A0003D0D0A00003801409C020020A0020020F0
:1013B000455350383236363A205553415254322034
:1013C000696E6974204F4B20282564206261756422
:1013D000290D0A004D475A00455350383236363AE7
:1013E000202B2B2B20E9808FE4BCA0207C20576988
:1013F00046693D25730D0A00884201D0012000E0B6
:1014000000200746F7480088F7490880F748007829
:101410000D2879D2DFE800F00717395EA4B5D4E4CF
:10142000FA78F9F8F700F248008864280ADB00200F
:10143000EF490880FFF77EFDEEA0FFF768FD012071
:10144000EA490870EFE3EDA0FFF780FD58B10020F6
:10145000E7490880FFF76EFDE9A0FFF758FD02207D
:10146000E249087010E0AFF2FC10FFF76FFD18B909
:10147000DF480088962807DB0020DD490880FFF759
:1014800059FDE3A0FFF743FDCDE3DCA0FFF75EFDD0
:1014900058B10020D6490880FFF74CFDDEA0FFF7C9
:1014A00036FD0320D149087013E0AFF24020FFF76A
:1014B0004DFD18B9CE48008896280ADB0020CC499B
:1014C0000880FFF737FDD2A0FFF721FD0120C749B3
:1014D0000870A8E3D8A0FFF739FD18B9D9A0FFF725
:1014E00035FD90B1DBA001F065FF0120E0490870F7
:1014F0000020BF490880FFF71DFDDEA0FFF707FDB4
:101500000720BA4908702AE089E3DEA0FFF71EFD34
:1015100020B9AFF2A820FFF719FD68B1DBA001F0F8
:1015200049FF0020D2490870B1490880FFF702FD49
:101530000620AE49087012E0AD48008840F2EE2166
:1015400088420CDBD7A001F035FF0020C8490870A5
:10155000A7490880FFF7EEFC0620A449087062E363
:10156000A3480088B0F5FA7F0ADB0020A049088074
:10157000FFF7E0FCD1A0FFF7CAFC05209B490870EB
:1015800051E3D1A0FFF7E2FC18B99CA0FFF7DEFC05
:1015900040B1002096490880FFF7CCFC0420934915
:1015A00008700CE0CAA001F005FF0020B0490870E7
:1015B0008F490880FFF7BEFC06208C49087032E393
:1015C0008B480088FA280ADB002089490880FFF749
:1015D000B1FC91A0FFF79BFC03208449087022E333
:1015E00086A0FFF7B3FC18B9BFA0FFF7AFFCD8B1D6
:1015F000FFF7A0FC40F25B73BEA2C3A103A801F0F9
:10160000E9FE03A903E0D3E2CEE08EE019E0C5A035
:1016100001F0D0FE03A8FFF77AFC0020744908808F
:101620000820724908700BE071480088322807DBF7
:1016300000206F490880FFF77DFC8EA0FFF767FC54
:10164000F1E2BBA0FFF782FC20B9BBA0FFF77EFC54
:1016500000284CD069A0FFF779FC002864D0BBA01B
:1016600001F0A8FE002062490880FFF763FC4FF4F8
:101670009670FEF7E1FFFFF75DFC3C20BC4BBDA27E
:10168000BFA10090C24800F0FDFC0446BCA2214668
:10169000C0A001F08FFECAA001F08CFE002506E07C
:1016A000BB48415DCCA001F085FE681CC5B2102D81
:1016B00001DAA542F4DB50A001F07CFE2146B448DB
:1016C000FFF789FC48B9C6A001F074FE0020484924
:1016D00008800A204549087026E0C9A001F06AFE8A
:1016E0000020434908800C20404908701CE0AFF2FC
:1016F0008440FFF72BFC60B9C7A0FFF727FC40B977
:10170000C7A0FFF723FC20B939480088B0F5FA7F5D
:101710000ADBC6A001F04EFE002035490880FFF725
:1017200009FC0C20314908707DE2AFF2D840FFF788
:101730000DFC20B301AA02A9C648FFF721FCE8B1BD
:10174000BDF80810019800F062FD054675B9C2A009
:1017500001F030FE0120C94908700020C849086026
:10176000FFF7E8FB0B202149087006E02946C5A0D9
:1017700001F020FE0C201D49087000BF13E0A6A058
:10178000FFF7E4FB48B9AFF21C50FFF7DFFB20B9CD
:1017900017480088B0F5967F05DBC1A001F00AFE6E
:1017A0000C20124908703EE2B5480068401CB4495C
:1017B000086099A0FFF7CAFB20B9AFF25050FFF7BD
:1017C000C5FB68B1BDA001F0F5FD0020AB49087074
:1017D000AB490860FFF7AEFB0C200449087022E219
:1017E0007EE1000094020020960200209802002072
:1017F0009A020020415445300D0A00004F4B000072
:1018000041542B43574D4F44453D310D0A000000D4
:1018100041540D0A0000000041542B43574A4150E7
:101820003D224D475A222C226F3132333534363522
:1018300034220D0A000000005749464920474F5402
:10184000204950005749464920434F4E4E45435486
:1018500045440000455350383236363A20576946E1
:101860006920436F6E6E6563746564210D0A000024
:10187000A002002041542B4349504D55583D300D96
:101880000A0000004641494C000000004553503812
:101890003236363A2057694669204641494C0D0A8E
:1018A00000000000455350383236363A205769461A
:1018B000692074696D656F75740D0A0041542B437E
:1018C000574A41503F0D0A002B43574A41503A00B6
:1018D000455350383236363A2057694669206C6F86
:1018E00073740D0A000000006E6F206368616E67FC
:1018F000650000006D717474732E6865636C6F759C
:1019000064732E636F6D000041542B434950535450
:101910004152543D22544350222C222573222C251F
:10192000640D0A00455350383236363A202573008C
:10193000434F4E4E45435400414C5245414459207B
:10194000434F4E4E454354454400000045535038E4
:101950003236363A2054435020636F6E6E6563749E
:10196000656420746F204F6E654E45540D0A00006B
:10197000A04000084F4234436C77446A593000005D
:10198000776B68636875616E67616E7169000000EE
:10199000C4060020455350383236363A204D515453
:1019A0005420434F4E4E45435420256420627974A1
:1019B00065732C204349443D25730D0A0000000047
:1019C000455350383236363A20434F4E4E454354F5
:1019D000206865783A200000253032582000000049
:1019E000455350383236363A204D51545420434FE7
:1019F0004E4E4543542073656E740D0A000000007E
:101A0000455350383236363A2043495053454E44B8
:101A1000206661696C0D0A00434C4F534544000039
:101A2000444E53204661696C000000004553503815
:101A30003236363A2054435020636F6E6E656374BD
:101A4000206661696C2C2072657472792E2E2E0DC1
:101A50000A000000C4040020455350383236363A9C
:101A6000204D515454204F6E6C696E652120284FD3
:101A70006E654E4554290D0A00000000A1020020A9
:101A8000A4020020455350383236363A20434F4E98
:101A90004E41434B206572723D25640D0A000000E3
:101AA000455350383236363A20434F4E4E41434B21
:101AB0002074696D656F75740D0A000045535038C8
:101AC0003236363A20544350206C6F7374202843CA
:101AD0004C4F5345442F4552524F52290D0A000096
:101AE0006C480068FA21B0FBF1F201FB120070BBF8
:101AF0006948007800906948037866486849026838
:101B00001BA801F067FC0646B3B21BAA65A1724888
:101B100000F03AFB044621466F48FFF75CFA0546A1
:101B20003DB95D4802785D4801786CA001F042FC47
:101B30000CE0294670A001F03DFC002077490870B8
:101B4000544908600C20764908706CE000BF514889
:101B5000006840F2DC51B0FBF1F201FB1200B0B9B9
:101B60005D4800F046FB044621465B48FFF733FA28
:101B700005465DB16BA001F01DFC002067490870AF
:101B8000444908600C20664908704CE000BFAFF67D
:101B90003C10FFF7DBF908B1FFF7CCF93D480068CE
:101BA0004EF66021884202D300203A4908603AE0AC
:101BB00000205A490870374908606248008828B9EF
:101BC00061A0FFF7A4F964A001F0F4FBAFF2B81034
:101BD000FFF7BCF968B9AFF2DC30FFF7B7F940B9ED
:101BE000AFF67810FFF7B2F918B9564800881928EF
:101BF00014DBFFF79FF96420FEF71EFD5D480078B7
:101C000030B100204F49088007204549087005E0A1
:101C100000204C49088006204149087003E000205C
:101C20003F49087000BF00BF27B946480088401CE4
:101C30004449088050480068401C4F4908600846E5
:101C4000006840F2EE21884220D300204A49086013
:101C50003348017849A001F0ADFBFFF76BF93AA0DA
:101C6000FFF755F9002501E0681C85B242F21070BB
:101C70008542F9DBFFF75EF90020294908703149F8
:101C80000880264908700349086000BF00BFFFF7BD
:101C9000BBBA0000A40200200400002003000020C2
:101CA00024410008247379732F4F4234436C7744E6
:101CB0006A59302F776B68636875616E67616E7102
:101CC000692F7468696E672F70726F7065727479AE
:101CD0002F706F7374000000C40600204D515454DF
:101CE000205055423A2074656D703D25642068751A
:101CF0006D693D25640D0A004D51545420505542E4
:101D0000206661696C20282564292C207265636F28
:101D10006E6E656374696E670D0A0000A102002093
:101D2000980200204D5154542050494E472066617E
:101D3000696C2C207265636F6E6E656374696E6783
:101D40000D0A00009A02002041542B434950434C95
:101D50004F53450D0A000000455350383236363A8D
:101D600020434950434C4F53452073656E740D0A10
:101D700000000000A00200209C02002045535038C3
:101D80003236363A204142532074696D656F75745E
:101D90002C2073746174653D25642C207265736515
:101DA000740D0A00052000BF011EA0F10102D0B28F
:101DB000FAD1704708B54FF40070ADF8000010205C
:101DC0008DF8030003208DF802006946A14800F059
:101DD0005BFC08BD08B54FF40070ADF8000048206A
:101DE0008DF8030069469B4800F04EFC08BD70B5B5
:101DF0000446FFF7DFFF00251EE04FF48071954891
:101E000000F0F1FCFFF7CEFF04F0010028B14FF421
:101E10000071904800F0E5FC04E04FF400718D483B
:101E200000F0E1FC64104FF480718A4800F0D9FCA6
:101E3000FFF7B8FF681CC5B2082DDEDB70BD70B5BA
:101E40000024FFF7C7FF002518E064104FF48071ED
:101E5000804800F0C8FCFFF7A5FF4FF400717D48F3
:101E600000F0A5FC08B144F080044FF4807179487B
:101E700000F0B7FCFFF796FF681CC5B2082DE4DB45
:101E8000204670BD70B505460C468021714800F0B3
:101E9000AAFC4FF480716F4800F0A5FC80216D48CA
:101EA00000F09FFC2846FFF7A2FF2046FFF79FFFA8
:101EB0008021684800F097FC70BD70B50446802111
:101EC000644800F090FC4FF48071624800F08BFC95
:101ED0008021604800F085FC2046FFF788FFFFF76F
:101EE000AEFF054680215B4800F07DFC284670BDB2
:101EF000014601F00F000A1102EB820200EB4200E2
:101F0000C0B2704701460A2091FBF0F200FB1210AC
:101F10000A2291FBF2F240EA0210C0B2704708B503
:101F20000121082000F04CFE4FF4C070ADF8000015
:101F300010208DF8030003208DF802006946454803
:101F400000F0A2FB8021434800F04DFC4FF480716B
:101F5000404800F048FC00218E20FFF793FF08BDA9
:101F600070B5044600218E20FFF78CFFA079FFF7A3
:101F7000C9FF054629468020FFF784FF6079FFF7F7
:101F8000C1FF054629468220FFF77CFF2079FFF735
:101F9000B9FF054629468420FFF774FFA078FFF7B4
:101FA000B1FF054629468620FFF76CFF6078FFF7F2
:101FB000A9FF054629468820FFF764FFE078FFF770
:101FC000A1FF054629468A20FFF75CFF2078FFF72E
:101FD00099FF054629468C20FFF754FF80218E206B
:101FE000FFF750FF70BD70B504468120FFF765FF15
:101FF00000F07F052846FFF77BFFA0718320FFF7E5
:102000005CFF0546FFF774FF60718520FFF755FF01
:102010000546FFF76DFF20718720FFF74EFF05464D
:10202000FFF766FFA0708920FFF747FF0546FFF71F
:102030005FFF60708B20FFF740FF0546FFF758FFFA
:10204000E0708D20FFF739FF0546FFF751FF207044
:1020500070BD0000000C014030B50246002300BFF7
:1020600002F07F00D2090AB140F080001C465D1CDE
:10207000EBB20855002AF3D1184630BD0A1202709F
:10208000417070472DE9FF4F83B017469846039C77
:102090004FF0020B049801F0F9F81FFA80F927B10C
:1020A000384601F0F3F880B200E000200546B8F1B0
:1020B000000F04D0404601F0E9F880B200E00020B3
:1020C00006460DB14BF0800B0EB14BF0400B4FF0BC
:1020D0000A0A09F1020082440DB1A81C82440EB123
:1020E000B01C824402A95046FFF7B6FF01901020B1
:1020F00004F8010B02A92046019A01F087F8019823
:10210000044404212046FFF7B9FFA41C4D2004F825
:10211000010B512004F8010B542004F8010B04F8C2
:10212000010B042004F8010B04F801BB20461099B0
:10213000FFF7A4FFA41C49462046FFF79FFFA41CFD
:102140004A462046049901F061F84C4455B12946AD
:102150002046FFF793FFA41C2A463946204601F08B
:1021600055F82C4456B131462046FFF787FFA41C92
:1021700032464146204601F049F834440398201A7B
:1021800080B207B0BDE8F08F2DE9F84F05468946CB
:1021900090461E462C46484601F078F887B2B81C97
:1021A00000EB060B69465846FFF756FF8246302083
:1021B00004F8010B52466946204601F027F85444C2
:1021C00039462046FFF75AFFA41C3A4649462046A6
:1021D00001F01CF83C44B8F1000F06D02EB1324695
:1021E0004146204601F012F83444601B80B2BDE83D
:1021F000F88F0146C0200870002048700220704708
:102200000146E02008700020487002207047024616
:10221000042901DA632070471078202801D00120BA
:10222000F9E7D07808B1D078F5E70020F3E7024667
:102230000AB900207047107800F0F00001F0F003B8
:10224000984201D10120F5E70020F3E72DE9F04F96
:1022500090B002460D4600201EE015F820A04FEA7F
:102260000A6A4FF0010B0BEB800B15F80BB04AEA32
:102270000B4A4FF0020B0BEB800B15F80BB04AEA40
:102280000B2A4FF0030B0BEB800B15F80BB04AEA4F
:102290000B0A4DF820A0401C1028DEDB16685168A0
:1022A0009368D4681769002064E0102823DBA0F14C
:1022B000030A0AF00F0A5DF82AA0A0F1080B0BF040
:1022C0000F0B5DF82BB08AEA0B0A00F1020B0BF042
:1022D0000F0B5DF82BB08AEA0B0A00F00F0B5DF8CC
:1022E0002BB08AEA0B0C4FEA4C0A4AEADC7A00F07F
:1022F0000F0B4DF82BA0142808DADFF8849201EABE
:10230000030A24EA010B4AEA0B0C1DE0282806DA2E
:10231000DFF8709281EA030A8AEA040C14E03C2890
:102320000CDADFF8649201EA030A01EA040B4AEAD4
:102330000B0A03EA040B4AEA0B0C05E0DFF84C92A7
:1023400081EA030A8AEA040C4FEA461A4AEAD66A84
:10235000E244BA4400F00F0B5DF82BB0DA440AEB0C
:10236000090827461C464FEA817A4AEA910331461A
:102370004646401C502898DBD2F800A0B244C2F870
:1023800000A0D2F804A08A44C2F804A0D2F808A0A1
:102390009A44C2F808A0D2F80CA0A244C2F80CA03B
:1023A000D2F810A0BA44C2F810A010B0BDE8F08F67
:1023B00077490160774941607549C9438160754932
:1023C000C943C160744901610021416100228261F9
:1023D00070472DE9F041044688461646A08AC0F3AE
:1023E000C507606900EBC6006061B0EBC60F02D2A2
:1023F000A069401CA061A06900EB5671A161B819E9
:102400003F281AD9C7F1400504F11C01C8192A4612
:10241000414600F0FBFE04F11C012046FFF716FFC9
:1024200005E008EB05012046FFF710FF403505F1F8
:102430003F00B042F5D3002700E00025721B08EBF7
:10244000050104F11C03D81900F0E0FEBDE8F0819D
:102450007CB506460D46002412E0042C01DA012169
:1024600000E0002105F1140050F8210004F0030100
:10247000C1F10301C900C840C0B20DF80400641CDA
:10248000082CEADB012245A12846FFF7A2FF04E061
:10249000012243A12846FFF79CFFA88A00F4FC70A4
:1024A000B0F5E07FF4D1082269462846FFF791FF96
:1024B00000240AE0A01055F8200004F00301C1F147
:1024C0000301C900C8403055641C142CF2DB7CBDEC
:1024D0002DE9F0479EB00746884616461C4607A8D9
:1024E000FFF766FF384600F0D1FE82465246394675
:1024F00007A8FFF76EFF404600F0C8FE824652462E
:10250000414607A8FFF765FF304600F0BFFE824650
:102510005246314607A8FFF75CFF07A902A8FFF75C
:1025200097FF4FF00009002521E002A8405D1DA1A2
:1025300001EB201000788DF8040002A8405D00F047
:102540000F0018A1085C8DF8050000208DF806002A
:102550009DF804204846411C1FFA81F922549DF839
:1025600005204846411C1FFA81F922546D1C142D88
:10257000DBDB002084F828001EB0BDE8F0870000F7
:102580009979825AA1EBD96EDCBC1B8FD6C162CA85
:102590000123456789ABCDEFF0E1D2C38000000095
:1025A000000000003031323334353637383961625B
:1025B000636465660000000010B50446C649601AF1
:1025C0008C422FD009DCC548204480B1B0F5806F23
:1025D00016D0B0F5006F4AD11BE0B0F5806F2AD05D
:1025E000B0F5006F30D0B0F5406F40D135E001213B
:1025F000042000F0FFFA0021042000F0FBFA37E08D
:102600000121082000F0F6FA0021082000F0F2FA7B
:102610002EE00121102000F0EDFA0021102000F042
:10262000E9FA25E00121202000F0E4FA0021202031
:1026300000F0E0FA1CE00121402000F0DBFA00216C
:10264000402000F0D7FA13E00121802000F0D2FAF8
:102650000021802000F0CEFA0AE00121080200F0FB
:10266000C9FA00214FF4807000F0C4FA00E000BF06
:1026700000BF10BD10B50121084600F0BBFA0021D3
:10268000012000F0B7FA10BD2DE9F0410246002507
:102690000026002000230024002791F803C00CF03E
:1026A0000F0591F803C00CF0100CBCF1000F03D023
:1026B00091F802C04CEA050591F800C0BCF1000F8A
:1026C00031D0146800202BE04FF0010C0CFA00F31D
:1026D000B1F800C00CEA03069E4220D183004FF0FF
:1026E0000F0C0CFA03F7BC4305FA03FC4CEA040494
:1026F00091F803C0BCF1280F06D14FF0010C0CFA81
:1027000000FCC2F814C00AE091F803C0BCF1480F05
:1027100005D14FF0010C0CFA00FCC2F810C0401CAF
:102720000828D1D31460B1F800C0BCF1FF0F34DD2C
:10273000546800202EE000F1080C4FF0010808FA60
:102740000CF3B1F800C00CEA03069E4221D18300CD
:102750004FF00F0C0CFA03F7BC4305FA03FC4CEAEC
:10276000040491F803C0BCF1280F05D100F1080C56
:1027700008FA0CF8C2F8148091F803C0BCF1480FB5
:1027800007D100F1080C4FF0010808FA0CF8C2F864
:102790001080401C0828CED35460BDE8F0814FF66D
:1027A000FF710180022181700421C17070470246CF
:1027B000002093680B400BB1012000E0002070471F
:1027C0000146886880B2704702460020D3680B40FB
:1027D0000BB1012000E0002070470146C86880B2BC
:1027E000704701617047416170470AB1016100E0C3
:1027F00041617047C16070474FF480320A43826183
:102800008161826182698269704702460020344B8F
:1028100018684FF68073184040EA02100843304BA6
:10282000186070472F49C8617047F0B50A46002309
:102830000024002100252A4E7168C0F3034583B2AD
:1028400000F44016B6F5401F08D121F07061244E07
:10285000766826F07066224F7E6012E000F48016E3
:10286000B6F5801F06D1032606FA05F4A14341F010
:10287000706106E0460D360103FA06F6B14341F0F9
:10288000706122B1460D360103FA06F63143144E4B
:102890007160F0BD30B500228B071C0F0F2303FAC7
:1028A00004F20F4B08338C1053F8243093430C4C34
:1028B00008348D1044F8253023468C1053F824300A
:1028C0008C07240F00FA04F42343054C08348D10C0
:1028D00044F8253030BD00000014014000F8FEBF70
:1028E0000000014000002042DE48006840F0010086
:1028F000DC49086008464068DB490840D94948601F
:1029000008460068D9490840D6490860084600686A
:1029100020F4802008600846406820F4FE004860EB
:10292000002088607047CF49096821F48031CD4A82
:1029300011601146096821F480211160B0F5803FD3
:1029400003D0B0F5802F0ED106E0C649096841F4E6
:102950008031C44A116007E0C249096841F4A021EE
:10296000C04A116000E000BF00BF704710B50146CB
:102970000022002300204A11012A02D1B94C236809
:1029800006E0022A02D1B74C236A01E0B54C636A23
:1029900001F01F02012494401C400CB1012000E012
:1029A000002010BD38B5002000900024002500BF95
:1029B0003120FFF7DBFF05460098401C00901DB951
:1029C0000098B0F5A06FF3D13120FFF7CFFF08B129
:1029D000012400E00024204638BD01460020A14A21
:1029E000106820F0F80040EAC10010607047A0496C
:1029F00008607047024600209A4B586820F47C100B
:102A000042EA01031843974B58607047984908669B
:102A1000704701460020934A506820F003000843A5
:102A2000506070478F48406800F00C0070470146C6
:102A300000208C4A506820F0F00008435060704736
:102A400001460020874A506820F4E0600843506047
:102A5000704701460020834A506820F4605040EAE5
:102A6000C1005060704729B17E4A527A02437D4BC3
:102A70005A7204E07B4A527A82437A4B5A72704708
:102A80007B49D8310860704701460020754A50687C
:102A900020F440400843506070470021714A2032C2
:102AA0001170704A82F82010012802D004280AD13F
:102AB00004E001216B4A2032117005E00521694ACA
:102AC0002032117000E000BF00BF70476949086004
:102AD00070476449096A0143624A11627047654957
:102AE00044390860704730B50021002200240023DB
:102AF0005C4D6D6805F00C0121B1042905D0082951
:102B000023D105E05C4D056022E05B4D05601FE0D0
:102B1000544D6D6805F47012022505EB9242514D3B
:102B20006D6805F480341CB9544D554305600BE0C5
:102B30004C4D6D6805F400351DB1504D5543056091
:102B400002E04D4D5543056002E04B4D056000BF6E
:102B500000BF444D6D6805F0F0010909484D6B5CFC
:102B60000568DD4045603F4D6D6805F4E061090A88
:102B7000434D6B5C4568DD4085603A4D6D6805F4FA
:102B80006051C90A3E4D6B5C4568DD40C560354DFE
:102B90006D6805F44041890B3A4D6B5CC568B5FB27
:102BA000F3F5056130BD29B12E4A526902432D4B20
:102BB0005A6104E02B4A526982432A4B5A6170479A
:102BC00029B1284A92690243264B9A6104E0254ABA
:102BD00092698243234B9A61704729B1214AD26995
:102BE0000243204BDA6104E01E4AD26982431D4B46
:102BF000DA61704729B11B4AD2680243194BDA6087
:102C000004E0184AD2688243164BDA60704729B153
:102C1000144A12690243134B1A6104E0114A126903
:102C20008243104B1A61704712494039086070475F
:102C30000F49C86470470B49C87170470948406A1A
:102C400040F0807007494862704701460020054AFD
:102C500092680A400AB1012000E000207047014953
:102C600088727047001002400000FFF8FFFFF6FE78
:102C7000000042428004424200127A0000093D00F6
:102C8000AC020020BC02002010B50446D749601AEF
:102C90008C422BD006DCD648204498B1B0F5806F2A
:102CA00038D119E0B0F5806F2AD0B0F56C4F31D132
:102CB00001218803FFF79EFF00214FF48040FFF7BA
:102CC00099FF28E001214804FFF7A1FF00214FF4FC
:102CD0000030FFF79CFF1EE001218804FFF797FFFB
:102CE00000214FF48020FFF792FF14E00121C80477
:102CF000FFF78DFF00214FF40020FFF788FF0AE067
:102D000001210805FFF783FF00214FF48010FFF732
:102D10007EFF00E000BF00BF10BD2DE9F04786B088
:102D200005460E460024A24600BF00BF00272F46DE
:102D30002C8A4CF6FF700440F08804432C82AC8946
:102D40004EF6F3100440B088318908437189084376
:102D50000443AC81AC8A4FF6FF400440B089044381
:102D6000AC8201A8FFF7BFFEA248874202D1DDF87E
:102D700010A001E0DDF80CA00AEBCA0000EB0A107D
:102D800031688900B0FBF1F86420B8FBF0F0040171
:102D90002009642101FB1089322000EB0910B0FBEF
:102DA000F1F000F00F0004432C8106B0BDE8F0877D
:102DB0004FF41651016000218180C18001810C21F6
:102DC000418100218181704710B502460020108AA0
:102DD0004FF2FF0318400B884C8823438C88234311
:102DE000CC8823431843108210BD0021018041800C
:102DF0008180C180704721B1828942F40052828172
:102E000004E082894DF6FF731A4082817047F0B565
:102E1000034600240026002500201846C1F3421472
:102E200001F01F06012707FA06F5012C01D10C302D
:102E300004E0022C01D1103000E014301AB1076810
:102E40002F43076002E00768AF430760F0BD1AB187
:102E5000838A0B43838202E0838A8B438382704799
:102E6000028A4FF6F0731A400282028A0A430282F3
:102E7000704782894FF2FF731A40828182890A4328
:102E80008281704721B1828942F00202828104E08E
:102E900082894FF6FD731A4082817047028A4FF68D
:102EA000DF731A400282028A0A430282704721B10C
:102EB000028A42F48042028204E0028A4BF6FF73E7
:102EC0001A4002827047C1F30802828070470146AF
:102ED0008888C0F308007047818941F00101818131
:102EE0007047028BD2B20283028B42EA0122028334
:102EF0007047028B02F47F420283028B0A430283F3
:102F0000704721B1828A42F02002828204E0828AE4
:102F10004FF6DF731A408282704721B1828A42F0F5
:102F20001002828204E0828A4FF6EF731A40828296
:102F3000704721B1828A42F00802828204E0828ACC
:102F40004FF6F7731A4082827047828A4FF6FB73FE
:102F50001A408282828A0A438282704721B1828A21
:102F600042F00202828204E0828A4FF6FD731A4028
:102F7000828270470246002013880B400BB101206B
:102F800000E000207047CA430280704770B50246D7
:102F90000B460024002100250020C3F3421503F056
:102FA0001F01012606FA01F1012D02D19689314057
:102FB00006E0022D02D1168A314001E0968A3140A6
:102FC0001C12012606FA04F41688344011B10CB123
:102FD000012000E0002070BD10B5002200230A127D
:102FE00001249440A3B2DC43048010BD004C004097
:102FF00000BCFFBF0038014031490143314A116034
:10300000704770B5002100230F22C47804B32D4C03
:10301000246804F4E064C4F5E064210AC1F1040307
:10302000CA40447804FA03F184781440214309012A
:10303000254C0678A155047804F01F050124AC4006
:1030400005786D11AD0005F1E025C5F8004109E0F6
:10305000047804F01F050124AC401C4D067876115D
:1030600045F8264070BD1A4A0A400243154B1B1F03
:103070001A60704739B1134A121D12680243114B8E
:103080001B1D1A6006E00F4A121D126882430D4B89
:103090001B1D1A607047042808D14FF0E021096910
:1030A00041F004014FF0E022116107E04FF0E02110
:1030B000096921F004014FF0E0221161704700001E
:1030C0000000FA050CED00E000E400E080E100E023
:1030D00080FFFF1F0CB5002001900090474800685A
:1030E00040F480304549086000BF4448006800F45F
:1030F000003000900198401C0190009818B9019888
:10310000B0F5A06FF1D13D48006800F4003010B177
:103110000120009001E0002000900098012844D197
:103120003748006840F010003549086008460068DC
:1031300020F0030008600846006840F002000860C4
:103140002E4840682D494860084640684860084657
:10315000406840F4806048600846406820F47C1075
:1031600048600846406840F4E81048600846006837
:1031700040F08070086000BF2048006800F00070D8
:103180000028F9D01D48406820F003001B49486022
:103190000846406840F00200486000BF1748406899
:1031A00000F00C000828F9D101E000BFFEE70CBDDB
:1031B00010B5FFF78FFF10BD10B51048006840F044
:1031C00001000E490860084640680E4908400B4956
:1031D0004860084600680C490840084908600846ED
:1031E000006820F4802008600846406820F4FE0053
:1031F000486000208860FFF7DBFF10BD0010024030
:10320000002002400000FFF8FFFFF6FE40EA010345
:103210009B0703D009E008C9121F08C0042AFAD28C
:1032200003E011F8013B00F8013B521EF9D2704750
:10323000D2B201E000F8012B491EFBD270470022F8
:10324000F6E710B513460A4604461946FFF7F0FFA5
:10325000204610BD30B505462A460B4612F8010B34
:1032600013F8014B08B1A042F8D01CB1002802D0DD
:103270006D1CF1E7284630BDCAB2401E10F8011F90
:103280008A4202D00029F9D100207047421C10F870
:10329000011B0029FBD1801A70472DE9F05F05461C
:1032A000002092469B4688460646814640241BE005
:1032B000284641464746224600F041F853465A46C2
:1032C000C01A914110D311461846224600F028F842
:1032D0002D1A67EB01084F4622460120002100F01D
:1032E0001FF817EB00094E41201EA4F10104DFDC9A
:1032F000484631462A464346BDE8F09F064C074DF6
:1033000006E0E06840F0010394E8070098471034B5
:10331000AC42F6D3FCF7EEFE74410008944100087D
:10332000202A04DB203A00FA02F100207047914085
:10333000C2F1200320FA03F3194390407047202A7A
:1033400004DB203A21FA02F00021704721FA02F34F
:10335000D040C2F12002914008431946704770B531
:103360008C1810F8015B15F0070301D110F8013B30
:103370002A1106D110F8012B03E010F8016B01F8B7
:10338000016B5B1EF9D12B0705D40023521E0DD40F
:1033900001F8013BFAE710F8013BCB1A921C03E05D
:1033A00013F8015B01F8015B521EF9D5A142D8D395
:1033B000002070BD0FB4054B10B503A9044A029854
:1033C00000F02CF810BC5DF814FB0000DB050008D1
:1033D000C00200200FB4084B10B504A902AA03983C
:1033E00000F01CF8044602A9002000F048FA20462C
:1033F00010BC5DF814FB00007F38000802E008C82C
:10340000121F08C1002AFAD170477047002001E05E
:1034100001C1121F002AFBD1704700002DE9FF4FA8
:103420008DB00F460546002606E025280BD0DDE9C5
:103430000F1290476D1C761C28780028F5D111B02A
:103440003046BDE8F08F0024A246A1460122EC4997
:1034500000E0044315F8013F203B02FA03F0084264
:10346000F7D128782A2810D06FF02F022878A0F101
:103470003001092914D80AEB8A0102EB410144F01A
:10348000020400EB010A6D1CF0E701CF5FEA000ABD
:1034900003D544F40054CAF1000A44F002046D1C40
:1034A00028782E2817D115F8010F44F004042A2893
:1034B0000ED06FF02F022878A0F1300109290AD828
:1034C00009EB890102EB410100EB01096D1CF2E7F8
:1034D00057F8049B6D1C28786C280FD006DC4C280C
:1034E00017D068280DD06A2814D104E0742810D0B1
:1034F0007A280FD10DE044F400140AE044F480145B
:1035000001E044F440146978814202D104F580144A
:103510006D1C6D1C2A786E2A1FD00CDC632A31D0FA
:1035200004DC002A8BD0582A11D1A3E0642A68D089
:10353000692A0CD165E0732A2ED004DC6F2A73D07F
:10354000702A04D19BE0752A6FD0782A6ED010467D
:10355000DDE90F129047761C50E1C4F302500228B7
:1035600006D0032809D0042801CF09D0066045E120
:1035700001CFF117C0E9006140E101CF06803DE1D4
:1035800006703BE117F8040B8DF8000000208DF861
:103590000100EB46012003E057F804BB4FF0FF3079
:1035A00061074FF0000102D40DE008F101018846E7
:1035B00049450FDA8045F8DB1BF808100029F4D1E3
:1035C00008E008F1010188468142FADB1BF8081087
:1035D0000029F6D1DDE90F23AAEB08008146214638
:1035E00000F036F9304400EB080604E0DDE90F1284
:1035F0001BF8010B9047B8F10108F7D22146484665
:10360000F7E00A21C4F302534FF0000B0891022B9C
:1036100004D001CFC117032B09D00AE0FF1D27F00A
:103620000707F7E8020108E032E01FE020E000B2FF
:10363000C117042B01D140B2C117031E71F1000361
:1036400007DA4FF0000CD0EB0C006CEB01012D23DE
:1036500002E0230504D52B238DF82430012303E059
:10366000E30701D02023F7E7984658E00A2110E04D
:1036700010210EE010204FF0000B08900CE01021FC
:103680004FF0000B44F004044FF00809089103E0E8
:1036900008214FF0000B0891C4F30253022B04D011
:1036A00001CF0021032B06D006E0FF1D27F00707FE
:1036B000F7E8020103E080B2042B00D1C0B24FF062
:1036C000000823072BD5702A07D0DDF820C08CF026
:1036D000100C5CEA0B0C05D00EE040238DF8243072
:1036E000012308E050EA010306D030238DF824308E
:1036F0008DF8252002239846DDF820C08CF0080CB8
:103700005CEA0B0C0BD150EA010301D1630706D52B
:1037100030238DF824304FF00108A9F10109582A0F
:1037200004D038A20B9208AA0A920BE03AA2F9E759
:103730005B46089AFFF7B1FD0B9B9B5C0A9A521EF1
:103740000A92137050EA0102F2D10A98ADEB000020
:1037500000F1200B600702D524F4803401E04FF023
:103760000109D94502DDA9EB0B0000E0002000EBC8
:103770000B0141440890AAEB010AE00306D4DDE9FD
:103780000F232146504600F063F806444FF000092D
:1037900008E009A911F80900DDE90F12904709F1C5
:1037A0000109761CC145F4DBE0030CD5DDE90F23EC
:1037B0002146504600F04CF8064404E0DDE90F12C3
:1037C00030209047761C0899481E08900029F5DCA7
:1037D00008E00A980A990078491C0A91DDE90F125D
:1037E0009047761CBBF10001ABF1010BF1DC2146E7
:1037F0005046DDE90F2300F019F806446D1C1BE666
:1038000009280100303132333435363738396162B6
:10381000636465660000000030313233343536377A
:103820003839414243444546000000002DE9F0414B
:10383000044600251E461746880404D405E0394690
:103840002020B0476D1C641EF9D52846BDE8F081E4
:103850002DE9F041044600251E469046C80301D5D7
:10386000302700E02027880404D505E0414638468B
:10387000B0476D1C641EF9D52846BDE8F0810A6882
:10388000531C0B6010707047000000000000000027
:10389000002F000000000700070000147F147F14B1
:1038A00000242A7F2A120062640813230036495537
:1038B000225000000503000000001C22410000000F
:1038C00041221C000014083E08140008083E0808A5
:1038D000000000A060000008080808080000606000
:1038E0000000002010080402003E5149453E00003F
:1038F000427F4000004261514946002141454B3121
:10390000001814127F10002745454539003C4A49EC
:10391000493000017109050300364949493600065E
:103920004949291E000036360000000056360000C6
:103930000008142241000014141414140000412241
:10394000140800020151090600324959513E007C19
:103950001211127C007F49494936003E4141412203
:10396000007F4141221C007F49494941007F0909EC
:103970000901003E4149497A007F0808087F00009C
:10398000417F4100002040413F01007F0814224157
:10399000007F40404040007F020C027F007F04080F
:1039A000107F003E4141413E007F09090906003E6B
:1039B0004151215E007F0919294600464949493194
:1039C0000001017F0101003F4040403F001F2040B7
:1039D000201F003F4038403F006314081463000775
:1039E0000870080700615149454300007F414100CC
:1039F00000552A552A55000041417F00000402016C
:103A00000204004040404040000001020400002049
:103A100054545478007F4844443800384444442087
:103A200000384444487F00385454541800087E0934
:103A300001020018A4A4A47C007F080404780000FC
:103A4000447D4000004080847D00007F10284400B9
:103A50000000417F4000007C04180478007C0804CA
:103A6000047800384444443800FC24242418001806
:103A7000242418FC007C08040408004854545420F2
:103A800000043F444020003C4040207C001C20407B
:103A9000201C003C4030403C004428102844001CBE
:103AA000A0A0A07C004464544C44141414141414B6
:103AB0000000000000000000000000000000000006
:103AC000000000F80000000000000033300000009B
:103AD00000100C06100C06000000000000000000A2
:103AE00040C07840C0784000043F04043F04040014
:103AF000007088FC08300000001820FF211E000024
:103B0000F008F000E018000000211C031E211E0038
:103B100000F00888700000001E21232419272110BE
:103B200010160E0000000000000000000000000061
:103B3000000000E018040200000000071820400008
:103B400000020418E00000000040201807000000F8
:103B5000404080F0804040000202010F010202005C
:103B6000000000F0000000000101011F0101010040
:103B7000000000000000000080B0700000000000A5
:103B8000000000000000000000010101010101012E
:103B900000000000000000000030300000000000C5
:103BA000000000008060180400601806010000009A
:103BB00000E010080810E000000F102020100F0097
:103BC000001010F8000000000020203F202000001E
:103BD0000070080808887000003028242221300076
:103BE00000300888884830000018202020110E007E
:103BF0000000C02010F8000000070424243F240027
:103C000000F80888880808000019212020110E00FB
:103C100000E0108888180000000F112020110E000D
:103C200000380808C83808000000003F0000000005
:103C30000070880808887000001C222121221C00C6
:103C400000E010080810E0000000312222110F00EF
:103C5000000000C0C0000000000000303000000084
:103C600000000080000000000000806000000000F4
:103C7000000080402010080000010204081020000D
:103C80004040404040404000040404040404040058
:103C900000081020408000000020100804020100ED
:103CA000007048080808F0000000003036010000ED
:103CB000C030C828E810E0000718272423140B00A0
:103CC0000000C038E0000000203C2302022738201A
:103CD00008F8888888700000203F202020110E00FE
:103CE000C0300808080838000718202020100800F5
:103CF00008F808080810E000203F202020100F00DE
:103D000008F88888E8081000203F202023201800A9
:103D100008F88888E8081000203F20000300000011
:103D2000C03008080838000007182020221E0200B2
:103D300008F808000008F808203F210101213F2071
:103D4000000808F8080800000020203F202000009C
:103D500000000808F8080800C08080807F0000008C
:103D600008F888C028180800203F200126382000C5
:103D700008F8080000000000203F2020202030002C
:103D800008F8F800F8F80800203F003F003F200046
:103D900008F830C00008F808203F200007183F004E
:103DA000E01008080810E0000F10202020100F007D
:103DB00008F808080808F000203F21010101000070
:103DC000E01008080810E0000F18242438504F00B5
:103DD00008F8888888887000203F2000030C302075
:103DE00000708808080838000038202121221C00B3
:103DF000180808F8080818000000203F20000000FC
:103E000008F808000008F808001F202020201F00E4
:103E10000878880000C83808000007380E01000044
:103E2000F80800F80008F800033C0700073C03000E
:103E3000081868808068180820302C03032C302074
:103E40000838C800C83808000000203F20000000E3
:103E500010080808C838080020382621202018003B
:103E6000000000FE020202000000007F404040000F
:103E7000000C30C000000000000000010638C00047
:103E800000020202FE000000004040407F000000EF
:103E90000004020202040000000000000000000014
:103EA0000000000000000000808080808080808012
:103EB00000020204000000000000000000000000FA
:103EC00000008080808000000019242222223F20F0
:103ED00008F8008080000000003F112020110E0033
:103EE0000000008080800000000E112020201100C2
:103EF000000000808088F800000E112020103F2074
:103F00000000808080800000001F222222221300F7
:103F1000008080F0888888180020203F2020000042
:103F20000000808080808000006B949494936000F7
:103F300008F8008080800000203F210000203F2002
:103F400000809898000000000020203F2020000002
:103F5000000000809898000000C08080807F0000F2
:103F600008F8000080808000203F24022D302000CF
:103F7000000808F8000000000020203F202000007A
:103F80008080808080808000203F20003F20003F94
:103F90008080008080800000203F210000203F20A2
:103FA0000000808080800000001F202020201F0053
:103FB000808000808000000080FFA12020110E0082
:103FC0000000008080808000000E112020A0FF8073
:103FD000808080008080800020203F212000010020
:103FE0000000808080808000003324242424190075
:103FF000008080E0808000000000001F2020000082
:104000008080000000808000001F202020103F20C2
:10401000808080000080808000010E300806010052
:1040200080800080008080800F300C030C300F00F7
:1040300000808000808080000020312E0E31200022
:10404000808080000080808080818E701806010052
:1040500000808080808080000021302C2221300070
:1040600000000000807C020200000000003F404091
:1040700000000000FF00000000000000FF00000042
:104080000002027C800000000040403F0000000071
:10409000000601010202040400000000000000000C
:1040A00076657273696F6E3D323031382D31302D47
:1040B0003331267265733D70726F64756374732556
:1040C00032464F4234436C77446A59302532466455
:1040D000657669636573253246776B6863687561D9
:1040E0006E67616E71692665743D313831313830E3
:1040F00038303030266D6574686F643D6D643526E8
:104100007369676E3D3752687A64687034653376D8
:104110003748614E48644F49574F7725334425331C
:10412000440000007B226964223A22256C75222C0F
:104130002276657273696F6E223A22312E30222CFC
:1041400022706172616D73223A7B2274656D7022F8
:104150003A7B2276616C7565223A25647D2C226853
:10416000756D69223A7B2276616C7565223A256409
:104170007D7D7D009441000800000020C402000005
:104180005E330008A4420008C402002004080000B6
:104190000C3400080112001110404042465CD8C0A7
:1041A0007F7FC0D0584E46404020088080C0603895
:1041B0001F07F8083F7F4040407878203A8201008E
:1041C0000A15E2E2B29A8E86828080051740C0FF0F
:1041D0007F180D407C3CFFFF1030309FFF78F801C6
:1041E0000111081010020606FFFF01054663395E43
:1041F000C7C17F3F20000F11FEFE92FEFE0210118C
:1042000017F6F4171310001111101F1F08FFFF8578
:10421000C1713D0F0F3D71C1813808FEFE2262C29F
:10422000F272050312FEFE1808FFFF180E070F1E9C
:10423000050B114FCEC61D1060028C452A92010954
:10424000113E11180A04047E01407E42427E02049F
:1042500013427E402809FC242424FC25262408023D
:10426000110408101440308F80844C5525252555A5
:104270004C80808080497F091780080B1244485089
:104280007F40407F504844800120031E3636055849
:104290000C12120C2D010203040440090607080940
:0442A0000204060806
:0400000508000101ED
:00000001FF
